:0F00000078427540037541037542037842E5412C
:0F000F0075F00AA42540F54375F0078485F04786
:10001E00E54275F00AA475F00784E5F075F00AA4C0
:0F002E0075F00784E54725F075F0078485F047E6
:10003D007430254790021FAC42AD437B0CBC0005CC
:0F004D00BD000201CABC0305BD43005070506ED8
:10005C00BD6402800C500ABC000280051CED2464B7
:10006C00FDE493F5309D500AA3ED9530FD0DE41B96
:0E007C0080DE740C9BFB80FEEB75F003A4FA93
:10008A009001FB93314FEAA393314FEAA393314F87
:0F009A007420314FED75F00A842430314FE5F0BA
:0F00A9002430314F7420314FE54775F003A4FA2E
:1000B8009001E693314FEAA393314FEAA393314F6E
:0E00C80001E890022FE493A36016314F80F7F9
:1000D600900235E493A36004314F80F7229430F602
:1000E6001822316DB42A06312B784280F5B4232FBD
:1000F60074C03142B8410D854240754100754200D9
:100106007842010BB8400D85414085424175420059
:0F0116007842010BB83F02010B01CA7842010B7E
:10012500314F11E380BD74383142740F314274068A
:0F0135003142740131427480314211D622F5906B
:0F014400C2B5C2B6D2B7315CC2B722F590D2B500
:0F015300C2B6D2B7315CC2B722C000C0017F3242
:0E0162007EFFDEFEDFFAD001D000227580FFA6
:1001700075A000E580540FB40FF6315CE580540F94
:10018000B40F0280F5315CE580540FB40F0280EAB1
:0F01900075A0FEE580540FB40F2175A0FDE5802A
:0F019F00540FB40F1C75A0FBE580540FB40F175D
:1001AE0075A0F7E580540FB40F1202017A9001D6B4
:1001BE00800D9001DA80089001DE80039001E21339
:1001CE005003A380FAE4932231323323343536239D
:1001DE00373839232A30232353554E4D4F4E54551D
:1001EE00455745445448554652495341544A414E49
:1001FE004645424D41524150524D41594A554E4A43
:10020E00554C4155475345504F43544E4F56444518
:10021E00431F1D1F1E1F1E1F1F1E1F1E1F1F1D1FC4
:10022E001E4552524F5200504C4541534520494EA7
:0F023E00505554204E554D4245523A200080FEF7
:00000001FF
