:0F0000007842311D0200DA7842E54175F00AA41A
:10000F002540F54375F0078485F047E54275F00A02
:0F001F00A475F00784E5F075F00AA475F0078466
:0F002E00E54725F075F0078485F04774302547C6
:0F003D00900211AC42AD437B0CBC0305BD4300E8
:10004C00506E506CBD6402800C500ABC00028005DE
:10005C001CED2464FDE493F5309D500AA3ED95301E
:10006C00FD0DE41B80DE740C9BFBEB75F003A4FA16
:10007C009001ED933141EAA3933141EAA3933141CD
:0F008C0074203141ED75F00A8424303141E5F0E4
:0F009B002430314174203141E54775F003A4FA58
:1000AA009001D8933141EAA3933141EAA3933141B4
:0E00BA0001DA900221E493A36016314180F731
:1000C800900227E493A36004314180F7229430F62C
:1000D8001822315FB42A06311D784280F5B4232FE7
:1000E80074C03134B8410D854240754100754200F5
:1000F80078420107B8400D8541408542417542006C
:0F01080078420107B83F02010701BC78420107A6
:10011700314111D580BD74383134740F31347406D0
:0F0127003134740131347480313411C822F590B1
:0F013600C2B5C2B6D2B7314EC2B722F590D2B51C
:0F014500C2B6D2B7314EC2B722C000C0017F325E
:0E0154007EFFDEFEDFFAD001D000227580FFB4
:1001620075A000E580540FB40FF6314EE580540FB0
:10017200B40F0280F5314EE580540FB40F0280EACD
:0F01820075A0FEE580540FB40F2175A0FDE58038
:0F019100540FB40F1C75A0FBE580540FB40F176B
:1001A00075A0F7E580540FB40F1202016C9001C8DE
:1001B000800D9001CC80089001D080039001D41371
:1001C0005003A380FAE4932231323341343536426E
:1001D000373839432A30234453554E4D4F4E5455EA
:1001E000455745445448554652495341544A414E57
:1001F0004645424D41524150524D41594A554E4A51
:10020000554C4155475345504F43544E4F56444526
:10021000431F1D1F1E1F1E1F1F1E1F1E1F1F1D1FD2
:100220001E4552524F5200504C4541534520494EB5
:0F023000505554204E554D4245523A200080FE05
:00000001FF
